:100000000C942A000C9447000C9447000C94470071
:100010000C9447000C9447000C9447000C94470044
:100020000C9447000C94F9080C9447000C9447007A
:100030000C9447000C9447000C9447000C94470024
:100040000C9447000C9447000C9447000C94470014
:100050000C94470011241FBECFE5D8E0DEBFCDBF12
:1000600010E0A0E6B0E0E4E1F3E102C005900D92FB
:10007000A638B107D9F720E0A6E8B0E001C01D928C
:10008000A43DB207E1F70E94CD030C9488090C94BB
:100090000000CF93DF931F92CDB7DEB789838981AC
:1000A000882F90E080329105C1F0813291051CF4D7
:1000B000409741F033C080349105D1F080389105EC
:1000C00011F12CC04FEF60E181E00E94440440E058
:1000D00060E181E00E94F00421C04FEF60E281E026
:1000E0000E94440440E060E281E00E94F00416C0F7
:1000F0004FEF60E481E00E94440440E060E481E06E
:100100000E94F0040BC04FEF60E881E00E944404BD
:1001100040E060E881E00E94F004000000000F90E1
:10012000DF91CF910895CF93DF931F92CDB7DEB7C4
:1001300089838981882F90E08032910591F0813206
:1001400091051CF4409741F01BC08034910571F07B
:100150008038910581F014C060E181E00E948F0534
:100160000FC060E281E00E948F050AC060E481E078
:100170000E948F0505C060E881E00E948F050000A5
:1001800000000F90DF91CF910895CF93DF93CDB70B
:10019000DEB728970FB6F894DEBF0FBECDBF9887A5
:1001A0008F8319821092C2008F819885FC01808113
:1001B0008093C3001092C4008F819885FC018181D7
:1001C000482F50E028EE33E0429FC001439F900D3E
:1001D000529F900D1124092E000CAA0BBB0B8B8390
:1001E0009C83AD83BE831A824AC08A81282F30E067
:1001F000C901880F991F820F931F880F991F880FBD
:10020000991F8A579F4FFC0110828A81282F30E066
:10021000C901880F991F820F931F880F991F880F9C
:10022000991F88579F4FFC011082118212821382FE
:100230008A81282F30E0C901880F991F820F931FF0
:10024000880F991F880F991F80579F4FFC011182BB
:1002500010828A81282F30E0C901880F991F820FF0
:10026000931F880F991F880F991F84579F4FFC0178
:1002700010821182128213828A818F5F8A838A811F
:10028000853008F4B2CF82EC93E00E94E6088091BA
:10029000C300882F90E081309105B1F08230910544
:1002A00021F1892B99F585E690E00E94EB058B8181
:1002B0009C81AD81BE81AC01BD0180E00E945E07E2
:1002C00080E00E94A80825C080E790E00E94EB052E
:1002D0008B819C81AD81BE81AC01BD0181E00E941A
:1002E0005E0781E00E94A80814C08BE790E00E949E
:1002F000EB058B819C81AD81BE81AC01BD0182E0AB
:100300000E945E0782E00E94A80803C085E08983FE
:100310000000898128960FB6F894DEBF0FBECDBFCE
:10032000DF91CF9108950F931F93CF93DF93CDB7B4
:10033000DEB72B970FB6F894DEBF0FBECDBF6B8331
:100340007C838D839E834F83398728871B870A8709
:1003500019828091C200863018F081E0898316C02E
:100360008B819C81AD81BE8181309241AA47B105CC
:1003700018F082E089830AC08F81882331F08F8151
:10038000813019F084E0898301C019828981882332
:1003900009F088C081E08A8381C08A81282F30E0FB
:1003A000C901880F991F820F931F880F991F880F0B
:1003B000991F8A579F4FFC018081882309F06BC0E9
:1003C0008A81282F30E0C901880F991F820F931F5F
:1003D000880F991F880F991F8A579F4F2A81FC0108
:1003E00020838A81282F30E0C901880F991F820F4E
:1003F000931F880F991F880F991F89579F4F2F812F
:10040000FC0120838A81282F30E0C901880F991FC1
:10041000820F931F880F991F880F991F9C012857DF
:100420003F4F8B819C81AD81BE81F9018083918397
:10043000A283B3838A81282F30E0C901880F991FD6
:10044000820F931F880F991F880F991F80579F4F06
:1004500028853985FC01318320838A81282F30E06B
:10046000C901880F991F820F931F880F991F880F4A
:10047000991F84579F4FFC011082118212821382B0
:100480008A859B852A81FC0120838091C2008F5F31
:100490008093C20007C08A818F5F8A838A818530FA
:1004A00008F47BCF89812B960FB6F894DEBF0FBE80
:1004B000CDBFDF91CF911F910F910895CF93DF931F
:1004C00000D000D0CDB7DEB78C8319821B8281E0CB
:1004D0008A8376C08A81282F30E0C901880F991F4E
:1004E000820F931F880F991F880F991F8A579F4F5C
:1004F000FC0190818C81981709F05FC08A81282FB8
:1005000030E0C901880F991F820F931F880F991F30
:10051000880F991F8A579F4FFC0110828A81282FCC
:1005200030E0C901880F991F820F931F880F991F10
:10053000880F991F89579F4FFC0110828A81282FAD
:1005400030E0C901880F991F820F931F880F991FF0
:10055000880F991F88579F4FFC01108211821282C9
:1005600013828A81282F30E0C901880F991F820FDA
:10057000931F880F991F880F991F84579F4FFC0165
:1005800010821182128213828A81282F30E0C901E1
:10059000880F991F820F931F880F991F880F991F2B
:1005A00080579F4FFC01118210828091C2008150C0
:1005B0008093C20081E08B8307C08A818F5F8A832A
:1005C0008A81853008F486CF8B81882311F483E0FB
:1005D000898389810F900F900F900F90DF91CF91B9
:1005E0000895CF93DF931F92CDB7DEB78091C400FB
:1005F000882309F4C2C081E08983A5C08981682F5E
:1006000070E08981282F30E0C901880F991F820F7F
:10061000931F880F991F880F991F84579F4FFC01C4
:1006200080819181A281B3819C01AD012F5F3F4FF9
:100630004F4F5F4FCB01880F991F860F971F880F71
:10064000991F880F991F84579F4FFC012083318386
:10065000428353838981282F30E0C901880F991F75
:10066000820F931F880F991F880F991F84579F4FE0
:10067000FC0120813181428153818981682F70E0A2
:10068000CB01880F991F860F971F880F991F880F1E
:10069000991F88579F4FFC0180819181A281B3816E
:1006A000281739074A075B0709F04AC08981282FB4
:1006B00030E0C901880F991F820F931F880F991F7F
:1006C000880F991F80579F4FFC0180819181FC0109
:1006D00009958981282F30E0C901880F991F820F61
:1006E000931F880F991F880F991F84579F4FFC01F4
:1006F00010821182128213828981282F30E0C90171
:10070000880F991F820F931F880F991F880F991FB9
:1007100089579F4FFC018081882391F48981282F7C
:1007200030E0C901880F991F820F931F880F991F0E
:10073000880F991F8A579F4FFC0180810E945E029B
:1007400089818F5F89838091C2009981891798F090
:100750008981282F30E0C901880F991F820F931FCC
:10076000880F991F880F991F8A579F4FFC0180811E
:10077000882309F043CF1092C40000000F90DF914E
:10078000CF910895CF93DF93CDB7DEB781E080930B
:10079000C4000000DF91CF9108950F931F93CF9372
:1007A000DF9300D000D0CDB7DEB780E10E944900D2
:1007B00080E20E94490080E40E94490080E80E9493
:1007C000490080E690E00E94C500CE0101968C01B0
:1007D00028E134E041E06AE070E080E090E00E94CF
:1007E0009301CE0102968C0123E234E041E064E102
:1007F00070E080E090E00E949301CE0103968C01AE
:100800002EE234E041E06CE271E080E090E00E9492
:100810009301CE0104968C0129E334E041E060EAC3
:100820007FE080E090E00E9493010E94F102FDCF02
:10083000CF93DF93CDB7DEB780E10E949300000035
:10084000DF91CF910895CF93DF93CDB7DEB780E2EC
:100850000E9493000000DF91CF910895CF93DF9322
:10086000CDB7DEB780E40E9493000000DF91CF9106
:100870000895CF93DF93CDB7DEB780E80E94930051
:100880000000DF91CF910895CF93DF9300D01F92A6
:10089000CDB7DEB789836A834B838981882F90E047
:1008A0008130910581F1823091051CF4892B49F04A
:1008B00090C08230910509F448C0039709F467C0DD
:1008C00088C08B81882F90E0009721F08F3F9105A1
:1008D00071F07FC08AE390E02AE330E0F9012081E3
:1008E000322F2A8120952323FC0120830BC08AE329
:1008F00090E02AE330E0F90130812A81232BFC01CA
:100900002083000066C08B81882F90E0009721F043
:100910008F3F910571F05DC087E390E027E330E001
:10092000F9012081322F2A8120952323FC01208385
:100930000BC087E390E027E330E0F90130812A81A2
:10094000232BFC012083000044C08B81882F90E082
:10095000009721F08F3F910571F03BC084E390E058
:1009600024E330E0F9012081322F2A8120952323CE
:10097000FC0120830BC084E390E024E330E0F90124
:1009800030812A81232BFC012083000022C08B812F
:10099000882F90E0009721F08F3F910571F018C0EB
:1009A00081E390E021E330E0F9012081322F2A81B8
:1009B00020952323FC0120830BC081E390E021E3F9
:1009C00030E0F90130812A81232BFC0120830000D3
:1009D000000000000F900F900F90DF91CF910895CD
:1009E000CF93DF9300D01F92CDB7DEB789836A83A0
:1009F0004B838B81882F90E0009709F442C00197C8
:100A000009F086C08981882F90E081309105B9F086
:100A1000823091051CF4892B39F07AC0823091051F
:100A2000C9F0039711F174C08BE390E02BE330E041
:100A3000F90130812A81232BFC01208321C088E326
:100A400090E028E330E0F90130812A81232BFC017A
:100A5000208316C085E390E025E330E0F901308182
:100A60002A81232BFC0120830BC082E390E022E348
:100A700030E0F90130812A81232BFC012083000022
:100A800047C08981882F90E081309105C9F082307C
:100A900091051CF4892B39F03AC082309105E9F0B8
:100AA000039741F134C08BE390E02BE330E0F90190
:100AB0002081322F2A8120952323FC01208327C007
:100AC00088E390E028E330E0F9012081322F2A8189
:100AD00020952323FC0120831AC085E390E025E3C1
:100AE00030E0F9012081322F2A8120952323FC0157
:100AF00020830DC082E390E022E330E0F901208101
:100B0000322F2A8120952323FC012083000000003E
:100B100000000F900F900F90DF91CF910895CF9329
:100B2000DF9300D0CDB7DEB789836A838981882FB0
:100B300090E081309105B9F0823091051CF4892B49
:100B400039F032C082309105C9F0039711F12CC001
:100B50008BE390E02BE330E0F90130812A812327F9
:100B6000FC01208321C088E390E028E330E0F90114
:100B700030812A812327FC01208316C085E390E081
:100B800025E330E0F90130812A812327FC0120830D
:100B90000BC082E390E022E330E0F90130812A814A
:100BA0002327FC012083000000000F900F90DF91AD
:100BB000CF910895CF93DF93CDB7DEB78FE590E067
:100BC0002FE530E0F90120812068FC01208300003E
:100BD000DF91CF910895CF93DF9300D01F92CDB7CF
:100BE000DEB79B838A8319828A819B81FC0187817E
:100BF0009085A185B2858093C5009093C600A0938F
:100C0000C700B093C8008A819B81FC018081882F36
:100C100090E08130910509F464C08230910509F4B7
:100C2000CCC0892B09F026C183E590E023E530E0B4
:100C3000F90140812A813B81F9012181242BFC01AA
:100C4000208389E590E029E530E0F90140812A819F
:100C50003B81F9012681242BFC01208380916200D5
:100C6000882F90E082309105E9F0833091052CF4D3
:100C7000009761F0019779F031C08430910501F15E
:100C800084309105B4F0059711F128C01092D1007D
:100C90001092D00023C081E090E09093D100809327
:100CA000D0001CC088E090E09093D1008093D000E9
:100CB00015C080E490E09093D1008093D0000EC0E6
:100CC00080E091E09093D1008093D00007C080E055
:100CD00094E09093D1008093D000000081E089835C
:100CE000CBC08FE490E02FE430E0F9012081422F67
:100CF0002A813B81F90121812370242BFC0120836F
:100D00008EE490E02EE430E0F9012081422F2A8128
:100D10003B81F90121812871242BFC01208389E585
:100D200090E029E530E0F90120812460FC01208376
:100D30000E94DA0580916300882F90E0823091054F
:100D4000E9F0833091052CF4009761F0019779F078
:100D500031C08430910501F184309105B4F00597DC
:100D600011F128C01092D3001092D20023C081E06C
:100D700090E09093D3008093D2001CC088E090E074
:100D80009093D3008093D20015C080E490E09093BC
:100D9000D3008093D2000EC080E091E09093D30006
:100DA0008093D20007C080E094E09093D3008093BA
:100DB000D200000081E089835FC085E490E025E4F3
:100DC00030E0F90140812A813B81F9012181242B06
:100DD000FC01208389E590E029E530E0F9014081BC
:100DE0002A813B81F9012681242BFC0120838091FB
:100DF0006400882F90E082309105E9F083309105FE
:100E00002CF4009761F0019779F031C0863091059C
:100E100001F18730910521F10497A1F028C01092CB
:100E2000CF001092CE0023C081E090E09093CF00DD
:100E30008093CE001CC088E090E09093CF00809318
:100E4000CE0015C080E490E09093CF008093CE0058
:100E50000EC080E091E09093CF008093CE0007C059
:100E600080E094E09093CF008093CE00000081E07A
:100E7000898302C0198200008A819B81FC018281E2
:100E80009381A481B5819093CA008093C900809119
:100E9000C9009091CA00CC01A0E0B0E02A813B815A
:100EA000F9012081AC01BD01822F0E945E0789817A
:100EB0000F900F900F90DF91CF910895CF93DF9314
:100EC000CDB7DEB72D970FB6F894DEBF0FBECDBFFE
:100ED00089874A875B876C877D8719821A821B8284
:100EE0001C828985882F90E08130910509F461C0CA
:100EF0008230910509F4BDC0892B09F014C180919D
:100F0000D0009091D100CC01A0E0B0E09C01AD01F7
:100F100060E472E48FE090E00E943C09DC01CB01C8
:100F20002091C5003091C6004091C7005091C80083
:100F3000BC01CD010E944C09DA01C9019C01AD013F
:100F40008A859B85AC85BD85BC01CD010E944C097D
:100F5000DA01C9018D839E83AF83B8878D819E811D
:100F6000AF81B88581309140A105B10528F0198283
:100F70001A821B821C82DCC08D819E8120E031E0C0
:100F8000A901481B590BCA019093CA008093C9005C
:100F900082E590E02091C9003091CA00FC012083D5
:100FA00081E090E0A0E0B0E089839A83AB83BC83CA
:100FB000BFC08091D2009091D300CC01A0E0B0E0FE
:100FC0009C01AD0160E472E48FE090E00E943C0976
:100FD000DC01CB012091C5003091C6004091C700D3
:100FE0005091C800BC01CD010E944C09DA01C90131
:100FF0009C01AD018A859B85AC85BD85BC01CD0179
:101000000E944C09DA01C9018D839E83AF83B887A2
:101010008D819E81AF81B8850197A140B10528F0EF
:1010200019821A821B821C8283C08D819E819195B8
:10103000819591099093CA008093C9008DE490E056
:101040002091C9003091CA00232F3327FC0120834F
:101050008CE490E02091C9003091CA00FC0120830B
:1010600081E090E0A0E0B0E089839A83AB83BC8309
:101070005FC08091CE009091CF00CC01A0E0B0E0A5
:101080009C01AD0160E472E48FE090E00E943C09B5
:10109000DC01CB012091C5003091C6004091C70012
:1010A0005091C800BC01CD010E944C09DA01C90170
:1010B0009C01AD018A859B85AC85BD85BC01CD01B8
:1010C0000E944C09DA01C9018D839E83AF83B887E2
:1010D0008D819E81AF81B88581309140A105B10598
:1010E00028F019821A821B821C8222C08D819E8167
:1010F00020E031E0A901481B590BCA019093CA00B6
:101100008093C90084E490E02091C9003091CA0026
:10111000FC01208381E090E0A0E0B0E089839A8325
:10112000AB83BC8305C019821A821B821C8200001B
:101130008A859B859093CA008093C90089812D96EA
:101140000FB6F894DEBF0FBECDBFDF91CF910895EB
:10115000CF93DF931F92CDB7DEB789838981882F24
:1011600090E08130910599F082309105E9F0892B6A
:1011700009F027C083E590E023E530E0F901208104
:10118000287F30916200232BFC0120831AC08EE45B
:1011900090E02EE430E0F9012081287F3091630057
:1011A000232BFC0120830DC085E490E025E430E092
:1011B000F9012081287F30916400232BFC012083DA
:1011C000000081E00F90DF91CF910895CF93DF93DE
:1011D00000D0CDB7DEB79A83898389819A819093B5
:1011E000CC008093CB0000000F900F90DF91CF9147
:1011F00008951F920F9200905F000F9211242F9379
:101200003F934F935F936F937F938F939F93AF938E
:10121000BF93EF93FF93CF93DF93CDB7DEB780916A
:10122000CB009091CC00892B31F08091CB00909134
:10123000CC00FC0109958091C9009091CA00CC01B5
:10124000A0E0B0E0AC01BD0181E00E945E070000BB
:10125000DF91CF91FF91EF91BF91AF919F918F91CE
:101260007F916F915F914F913F912F910F900092DD
:101270005F000F901F901895DB018F939F930E9442
:101280006E09BF91AF91A29F800D911DA39F900DFC
:10129000B29F900D11240895A1E21A2EAA1BBB1B28
:1012A000FD010DC0AA1FBB1FEE1FFF1FA217B30732
:1012B000E407F50720F0A21BB30BE40BF50B661F48
:1012C000771F881F991F1A9469F76095709580950C
:1012D00090959B01AC01BD01CF0108950E94790951
:1012E000A59F900DB49F900DA49F800D911D11247A
:1012F0000895A29FB001B39FC001A39F700D811DEF
:101300001124911DB29F700D811D1124911D08950E
:04131000F894FFCF7F
:101314000101010501000040420F000100127A00A2
:10132400010040420F000100127A00020040420F07
:06133400000100127A0026
:00000001FF
